:10000000201400206D280000A3780000592800006B
:10001000592800005928000059280000000000005D
:100020000000000000000000000000007526000035
:100030005928000000000000212600005928000077
:10004000D9250000D9250000D9250000D9250000B8
:10005000D9250000D9250000D9250000D9250000A8
:10006000D9250000D9250000D9250000D925000098
:10007000D9250000D9250000D9250000D925000088
:10008000D9250000D9250000D9250000D925000078
:10009000D9250000D9250000D9250000D925000068
:1000A000D9250000D9250000D9250000D925000058
:1000B000D9250000D9250000D9250000D925000048
:1000C000D9250000D9250000D9250000D925000038
:1000D000D9250000D9250000D9250000D925000028
:1000E000D9250000D9250000D9250000D925000018
:1000F000D9250000D9250000D9250000D925000008
:1001000081F0004102E000BF83F0004330B54FEAC8
:1001100041044FEA430594EA050F08BF90EA020F35
:100120001FBF54EA000C55EA020C7FEA645C7FEAC8
:10013000655C00F0E2804FEA5454D4EB5555B8BFEB
:100140006D420CDD2C4480EA020281EA030382EA5C
:10015000000083EA010180EA020281EA0303362DEE
:1001600088BF30BD11F0004F4FEA01314FF4801CC1
:100170004CEA113102D0404261EB410113F0004FD3
:100180004FEA03334CEA133302D0524263EB43038A
:1001900094EA050F00F0A780A4F10104D5F1200E28
:1001A0000DDB02FA0EFC22FA05F2801841F1000183
:1001B00003FA0EF2801843FA05F359410EE0A5F157
:1001C00020050EF1200E012A03FA0EFC28BF4CF088
:1001D000020C43FA05F3C01851EBE37101F000453E
:1001E00007D54FF0000EDCF1000C7EEB00006EEB4B
:1001F0000101B1F5801F1BD3B1F5001F0CD34908D5
:100200005FEA30004FEA3C0C04F101044FEA44522B
:1002100012F5800F80F09A80BCF1004F08BF5FEAB2
:10022000500C50F1000041EB045141EA050130BD92
:100230005FEA4C0C404141EB0101013C28BFB1F5A4
:10024000801FE9D291F0000F04BF01460020B1FAEF
:1002500081F308BF2033A3F10B03B3F120020CDAC2
:100260000C3208DD02F1140CC2F10C0201FA0CF0A0
:1002700021FA02F10CE002F11402D8BFC2F1200C05
:1002800001FA02F120FA0CFCDCBF41EA0C019040BB
:10029000E41AA2BF01EB0451294330BD6FEA040404
:1002A0001F3C1CDA0C340EDC04F11404C4F12002EF
:1002B00020FA04F001FA02F340EA030021FA04F301
:1002C00045EA030130BDC4F10C04C4F1200220FA58
:1002D00002F001FA04F340EA0300294630BD21FA96
:1002E00004F0294630BD94F0000F83F4801306BF5C
:1002F00081F480110134013D4EE77FEA645C18BF50
:100300007FEA655C29D094EA050F08BF90EA020FE6
:1003100005D054EA000C04BF1946104630BD91EADE
:10032000030F1EBF0021002030BD5FEA545C05D1E1
:100330004000494128BF41F0004130BD14F5800420
:100340003CBF01F5801130BD01F0004545F0FE4194
:1003500041F470014FF0000030BD7FEA645C1ABFC9
:10036000194610467FEA655C1CBF0B46024650EA00
:10037000013406BF52EA033591EA030F41F400212C
:1003800030BD00BF90F0000F04BF0021704730B5B2
:100390004FF4806404F132044FF000054FF0000187
:1003A00050E700BF90F0000F04BF0021704730B548
:1003B0004FF4806404F1320410F0004548BF40421D
:1003C0004FF000013EE700BF42004FEAE2014FEA72
:1003D00031014FEA02701FBF12F07F4393F07F4F4D
:1003E00081F06051704732F07F4208BF704793F050
:1003F0007F4F04BF41F40021704730B54FF4607463
:1004000001F0004521F000411CE700BF50EA010265
:1004100008BF704730B54FF000050AE050EA01020E
:1004200008BF704730B511F0004502D5404261EB7E
:1004300041014FF4806404F132045FEA915C3FF4BF
:10044000D8AE4FF003025FEADC0C18BF03325FEA5C
:10045000DC0C18BF033202EBDC02C2F1200300FA0D
:1004600003FC20FA02F001FA03FE40EA0E0021FA32
:1004700002F11444BDE600BF70B54FF0FF0C4CF420
:10048000E06C1CEA11541DBF1CEA135594EA0C0FD2
:1004900095EA0C0F00F0DEF82C4481EA030621EA0D
:1004A0004C5123EA4C5350EA013518BF52EA033548
:1004B00041F4801143F4801338D0A0FB02CE4FF0FA
:1004C0000005E1FB02E506F00042E0FB03E54FF02A
:1004D0000006E1FB03569CF0000F18BF4EF0010E22
:1004E000A4F1FF04B6F5007F64F5407404D25FEA1E
:1004F0004E0E6D4146EB060642EAC62141EA5551D1
:100500004FEAC52040EA5E504FEACE2EB4F1FD0C12
:1005100088BFBCF5E06F1ED8BEF1004F08BF5FEA90
:10052000500E50F1000041EB045170BD06F0004642
:1005300046EA010140EA020081EA0301B4EB5C04EF
:10054000C2BFD4EB0C0541EA045170BD41F48011E7
:100550004FF0000E013C00F3AB8014F1360FDEBF0C
:10056000002001F0004170BDC4F10004203C35DAE8
:100570000C341BDC04F11404C4F1200500FA05F36B
:1005800020FA04F001FA05F240EA020001F000420C
:1005900021F0004110EBD37021FA04F642EB060182
:1005A0005EEA430E08BF20EAD37070BDC4F10C04AC
:1005B000C4F1200500FA04F320FA05F001FA04F270
:1005C00040EA020001F0004110EBD37041F100015C
:1005D0005EEA430E08BF20EAD37070BDC4F1200567
:1005E00000FA05F24EEA020E20FA04F301FA05F2CF
:1005F00043EA020321FA04F001F0004121FA04F277
:1006000020EA020000EBD3705EEA430E08BF20EA46
:10061000D37070BD94F0000F0FD101F00046400080
:1006200041EB010111F4801F08BF013CF7D041EA02
:10063000060195F0000F18BF704703F00046520006
:1006400043EB030313F4801F08BF013DF7D043EAD7
:100650000603704794EA0C0F0CEA135518BF95EA8D
:100660000C0F0CD050EA410618BF52EA4306D1D114
:1006700081EA030101F000414FF0000070BD50EA33
:10068000410606BF1046194652EA430619D094EABD
:100690000C0F02D150EA013613D195EA0C0F05D1A7
:1006A00052EA03361CBF104619460AD181EA0301FB
:1006B00001F0004141F0FE4141F470014FF00000B3
:1006C00070BD41F0FE4141F4780170BD70B54FF04E
:1006D000FF0C4CF4E06C1CEA11541DBF1CEA1355CE
:1006E00094EA0C0F95EA0C0F00F0A7F8A4EB0504B0
:1006F00081EA030E52EA03354FEA013100F08880A7
:100700004FEA03334FF0805545EA131343EA12636F
:100710004FEA022245EA111545EA10654FEA002624
:100720000EF000419D4208BF964244F1FD0404F5DD
:10073000407402D25B084FEA3202B61A65EB030539
:100740005B084FEA32024FF480104FF4002CB6EBF6
:10075000020E75EB030E22BFB61A754640EA0C0076
:100760005B084FEA3202B6EB020E75EB030E22BFB6
:10077000B61A754640EA5C005B084FEA3202B6EBF7
:10078000020E75EB030E22BFB61A754640EA9C00B6
:100790005B084FEA3202B6EB020E75EB030E22BF86
:1007A000B61A754640EADC0055EA060E18D04FEA44
:1007B000051545EA16754FEA06164FEAC30343EAE4
:1007C00052734FEAC2025FEA1C1CC0D111F4801FB1
:1007D0000BD141EA00014FF000004FF0004CB6E7AA
:1007E00011F4801F04BF01430020B4F1FD0C88BF49
:1007F000BCF5E06F3FF6AFAEB5EB030C04BFB6EB54
:10080000020C5FEA500C50F1000041EB045170BD46
:100810000EF0004E4EEA113114EB5C04C2BFD4EB73
:100820000C0541EA045170BD41F480114FF0000EF7
:10083000013C90E645EA060E8DE60CEA135594EA73
:100840000C0F08BF95EA0C0F3FF43BAF94EA0C0F76
:100850000AD150EA01347FF434AF95EA0C0F7FF4EB
:1008600025AF104619462CE795EA0C0F06D152EA3F
:1008700003353FF4FDAE1046194622E750EA410623
:1008800018BF52EA43067FF4C5AE50EA41047FF434
:100890000DAF52EA43057FF4EBAE12E74FF0FF3C99
:1008A00006E000BF4FF0010C02E000BF4FF0010C6A
:1008B0004DF804CD4FEA410C7FEA6C5C4FEA430CE3
:1008C00018BF7FEA6C5C1BD001B050EA410C0CBF32
:1008D00052EA430C91EA030F02BF90EA020F002094
:1008E000704710F1000F91EA030F58BF994208BFFB
:1008F00090422CBFD8176FEAE37040F001007047B8
:100900004FEA410C7FEA6C5C02D150EA013C07D10E
:100910004FEA430C7FEA6C5CD6D152EA033CD3D059
:100920005DF8040B704700BF8446104662468C4653
:100930001946634600E000BF01B5FFF7B7FF002886
:1009400048BF10F1000F01BD4DF808EDFFF7F4FFAF
:100950000CBF012000205DF808FB00BF4DF808ED3A
:10096000FFF7EAFF34BF012000205DF808FB00BF5D
:100970004DF808EDFFF7E0FF94BF012000205DF87F
:1009800008FB00BF4DF808EDFFF7CEFF94BF012034
:1009900000205DF808FB00BF4DF808EDFFF7C4FF2D
:1009A00034BF012000205DF808FB00BF4FEA410280
:1009B00012F5001215D211D56FF47873B3EB6252B1
:1009C00012D94FEAC12343F0004343EA505311F0D8
:1009D000004F23FA02F018BF404270474FF000006A
:1009E000704750EA013005D111F0004008BF6FF0A8
:1009F000004070474FF00000704700BF53B94AB93C
:100A0000002908BF00281CBF4FF0FF314FF0FF3016
:100A100000F06CB9ADF1080C6DE904CE00F006F8F9
:100A2000DDF804E0DDE9022304B070472DE9F0476A
:100A3000089E0D4604468E46002B40F082808A4276
:100A4000174646D9B2FA82F24AB1C2F1200105FA3C
:100A500002F320FA01F1974041EA030E94404FEA75
:100A60001748230CBEFBF8FCB9B208FB1CEE43EAA6
:100A70000E430CFB01F098420AD9FB180CF1FF352C
:100A800080F01681984240F21381ACF1020C3B4495
:100A90001B1AA4B2B3FBF8F008FB103344EA03447A
:100AA00000FB01F1A14209D93C1900F1FF3380F0AC
:100AB0000181A14240F2FE8002383C44641A40EABF
:100AC0000C4000211EB1D4400023C6E90043BDE81C
:100AD000F08702B9FFDEB2FA82F2002A4FD1CB1BB7
:100AE0004FEA174E1FFA87F80121B3FBFEFC250CD5
:100AF0000EFB1C3345EA034508FB0CF3AB4207D958
:100B00007D190CF1FF3002D2AB4200F2E78084463F
:100B1000ED1AA3B2B5FBFEF00EFB105543EA0544F7
:100B200008FB00F8A04507D93C1900F1FF3302D2B9
:100B3000A04500F2D7801846A4EB080440EA0C4018
:100B4000C0E78B4208D9002E00F0AF800021C6E933
:100B500000050846BDE8F087B3FA83F100294BD1C0
:100B6000AB4202D3824200F2B780841A65EB0303E2
:100B700001209E46002EAAD0C6E9004EA7E7C2F18A
:100B8000200C01FA02F3974020FA0CF04FEA174EBE
:100B900021FA0CFC1843BCFBFEF1050C0EFB11CC3A
:100BA0001FFA87F845EA0C4501FB08F3AB4204FA4B
:100BB00002F409D97D1901F1FF3C80F08B80AB4232
:100BC00040F2888002393D44EB1A85B2B3FBFEF057
:100BD0000EFB103345EA034500FB08F3AB4207D98F
:100BE0007D1900F1FF3C71D2AB426FD902383D4410
:100BF000EB1A40EA014178E7C1F1200C8B4022FA60
:100C00000CF71F4320FA0CF405FA01F34FEA174ED4
:100C100025FA0CF51C43230CB5FBFEF91FFA87F8E7
:100C20000EFB195543EA054509FB08FAAA4502FAE5
:100C300001F200FA01F308D97D1909F1FF3047D21A
:100C4000AA4545D9A9F102093D44A5EB0A05A4B27C
:100C5000B5FBFEF00EFB105544EA054400FB08F816
:100C6000A04507D93C1900F1FF352DD2A0452BD95D
:100C700002383C4440EA0940A4EB0804A0FB028986
:100C80004C45C6464D4619D316D05EB1B3EB0E02A5
:100C900064EB050404FA0CFCCA404CEA0202CC40A6
:100CA000C6E900240021BDE8F087314630460EE752
:100CB000AC46EDE6184601E74345E6D2B8EB020E36
:100CC00069EB07050138E0E72846D3E760468FE780
:100CD0008146BAE7614677E708464BE7ACF1020C7C
:100CE0003D4415E702383C4426E700BF704700BF8B
:100CF0002DE9F04F8FB000F031FAB54B6A4603F1A1
:100D0000080518685968144603C40833AB422246E4
:100D1000F7D118689B88A380AE4B206008AA03F126
:100D2000100518685968144603C40833AB422246BC
:100D3000F7D1186899889B79A371A74B2060A1808F
:100D400004AA03F1100518685968144603C408334F
:100D5000AB422246F7D1DFF8CCB2DFF8CC920126C5
:100D60000024002500274FF0000A4FF000086420FF
:100D7000013F06F089FC032F03D8DFE807F0416C40
:100D8000A8BB964B1B68012B30D0954B1B68012BE1
:100D90002CD0944B1B68012B28D0934B1B68012B44
:100DA0000CBF02230023914A1768012F04D0904AF8
:100DB0001768012F18BF1F468E4B1B68012B8E4BE7
:100DC0001B6808BF0327012B08BF0427012E0FD182
:100DD00069468A4806F03FFD2946204600F0DEFAC3
:100DE000D0E90012864806F036FDC0E70223DAE7B4
:100DF000022E03D0032EEFD104A9EAE708A9E8E701
:100E00007B4A1368012B794B01D1012E1DD011684B
:100E1000012901D1022E1AD01168012901D1032E16
:100E200017D01968012901D1012E10D019680129A4
:100E300001D1022E0DD01968012902D1032E08BF5D
:100E40000226002717601F6091E70226F9E70326B4
:100E5000F7E70E46F5E7614F3B68012B0AD158A32F
:100E6000D3E9002320462946FFF750F90023044622
:100E70000D463B605A4F3B68012B0AD152A3D3E980
:100E8000002320462946FFF741F9002304460D467A
:100E90003B60544F3B68012B09D14B462046294605
:100EA0004246FFF733F9002304460D463B604E4FA0
:100EB0003B68012B09D15B46204629465246FFF785
:100EC00025F9002304460D463B6000274FE72946DD
:100ED000204600F063FAD0E900124A4806F0BBFC55
:100EE0004FF4FA6006F0D0FB424B00271F6000244D
:100EF00000253CE7012E22D1434B00222046294603
:100F0000FFF72CFD68B12946204600F047FAD0E9EA
:100F100000123E4806F09FFC4FF4FA6006F0B4FB66
:100F200011E00022384B20462946FFF7EDF80D4628
:100F3000044600F033FAD0E900123548EAE7022E01
:100F400004D0032E1FD02C4B00277CE752465B4673
:100F500020462946FFF702FD38B12946204600F019
:100F60001DFAD0E900122B48D4E752465B462046D2
:100F70002946FFF7C9F80D46044600F00FFAD0E9FC
:100F800000122548C6E742464B4620462946FFF751
:100F9000E5FC38B12946204600F000FAD0E90012FD
:100FA0001E48B7E742464B4620462946FFF7ACF8B5
:100FB0000D46044600F0F2F9D0E900121848A9E7FE
:100FC0009A9999999999B93F9A9999999999C93FF3
:100FD00038870000468700005D8700002803002056
:100FE0002C030020300300203403002038030020AD
:100FF0003C030020400300204403002088850000BB
:101000008C850000A18500000000F83FB485000039
:10101000F78500002E8600007A860000BA86000060
:10102000FF8600000000F03F0000E03F014B01227E
:101030001A60704728030020014B01221A60704794
:101040002C030020014B01221A607047300300205E
:10105000014B01221A60704734030020014B01222A
:101060001A60704738030020014B01221A60704754
:101070003C030020014B01221A607047400300200E
:10108000014B01221A6070474403002043682DE998
:10109000F0411B68D0F80880076901268E401E4287
:1010A00004460D460ED10E490E4A0F4840F2FD236C
:1010B00006F0D1FB0D4806F0CEFB0A4840F2FD21B8
:1010C00006F0F5FA3B6823EA06063E60D8F80030E1
:1010D000294620464FF48872BDE8F041184700BF0A
:1010E000E6810000BC8100002482000041820000F3
:1010F00043682DE9F0411B688768D0F8108001260D
:101100008E401E4204460D460ED11049104A114829
:1011100040F29D2306F09FFB0F4806F09CFB0C4815
:1011200040F29D2106F0C3FAD8F800301E42BE6995
:1011300029462046B44618BF4FF40033BDE8F041BD
:1011400008BF4FF480234FF4A0326047E6810000CF
:10115000BC810000248200004182000010B56C4870
:1011600003F088FE044620B9BDE81040694806F047
:1011700072BB694806F06FFB0B212046FFF786FF24
:10118000011E04DA6548BDE8104006F064BB0B217F
:101190002046FFF7ADFF014608B16148F3E761491A
:1011A000614B4B6020464FF400638B6006F064FA9D
:1011B0000C212046FFF76AFF011E01DA5B48E2E7D7
:1011C0000C212046FFF794FF014608B15848DAE7A2
:1011D0005849594B4B6020464FF480538B6006F0C2
:1011E0004BFA18212046FFF751FF011E01DA534840
:1011F000C9E718212046FFF77BFF014608B1504898
:10120000C1E75049504B4B6020464FF080738B60D4
:1012100006F032FA19212046FFF738FF011E01DAE5
:101220004A48B0E719212046FFF762FF014608B19E
:101230004748A8E74749484B4B6020464FF00073AA
:101240008B6006F019FA03212046FFF71FFF011EED
:1012500001DA424897E703212046FFF749FF01469C
:1012600008B13F488FE73F493F4B4B60204608237A
:101270008B6006F001FA04212046FFF707FF011EEC
:1012800001DA3A487FE704212046FFF731FF0146A3
:1012900008B1374877E73749374B4B602046102372
:1012A0008B6006F0E9F91C212046FFF7EFFE011ED6
:1012B00001DA324867E71C212046FFF719FF014693
:1012C00008B12F485FE72F492F4B4B6020464FF066
:1012D00080538B6006F0D0F91D212046FFF7D6FE23
:1012E000011E01DA29484EE71D212046FFF700FFC5
:1012F000014608B1264846E72649274B4B60204661
:101300004FF00053BDE810408B6006F0B5B900BF48
:10131000538200005A8200007B8200009882000005
:10132000BF820000C80200202D100000F6820000DD
:101330001D830000D40200203910000054830000F7
:101340007B830000E002002045100000B283000013
:10135000D9830000EC02002051100000108400002E
:1013600037840000F80200205D1000006E84000049
:10137000958400000403002069100000CC84000064
:10138000F384000010030020751000002A8500007F
:10139000518500001C03002081100000D0B50F46CD
:1013A0000646FFF703FB094C2060FEF7FBFF0246F1
:1013B0000B4630463946FEF7A7FE054B0022FFF7E5
:1013C0005BF8FFF7F3FA60602046D0BD48030020C9
:1013D000000024402DE9F04F91B08B4602909246D8
:1013E0001C4600259AF8000008B928465EE3252827
:1013F0000AF1010707D0029B594698470028C0F21E
:101400005583013510E2182200210AA806F084FA5B
:101410009AF80130252B78D000229446164696463D
:101420001046394617F8013B2B2B00F09D8000F247
:101430009480202B00F09B80232B00F09A8028B111
:101440009DF8300040F004008DF83000BEF1000F30
:1014500005D09DF8300040F008008DF830002EB126
:101460009DF8300040F010008DF83000BCF1000F06
:1014700005D09DF8300040F020008DF830002AB1F2
:101480009DF8302042F040028DF830209DF8302049
:1014900002F04400442803D16FF386128DF8302007
:1014A0009DF830202A2B42F080028DF830207BD12D
:1014B0009DF8312042F001024B1C8DF831201A7842
:1014C0002E2A9DF831200CBF0121002161F3410239
:1014D0008DF8312074D15A782A2A6AD0013300213C
:1014E0000A26184610F8012BA2F13007092F40F206
:1014F0008E809DF830200E91C2F3400040EAD171F9
:1015000061F341028DF830205AE00AF102078DF8AC
:1015100033309DF83130D90740F1498154F8049BAC
:10152000B9F1000F07DA9DF8302042F004028DF87F
:101530003020C9F100095A0740F1428154F8048B68
:10154000B8F1000F80F241819DF831306FF3410313
:101550008DF831304FF0FF3837E12D2B0CD0302B88
:101560007FF46DAF01225CE74FF0010E59E70126D1
:1015700057E74FF0010C54E7012052E70CFB020241
:10158000303A33461E4616F8010BA0F13007092FFA
:10159000F4D9994293D09DF830100D92D20F62F396
:1015A00041018DF830108AE70B4600224FF00A0CFB
:1015B000E8E79DF8312042F004028DF83120023333
:1015C0001F4617F8012B6C2A41D025D8682A2BD04A
:1015D0006A2A46D04C2A4CD01F4617F8012B9DF89A
:1015E00031308DF83320782A00F2D980572A4DD82F
:1015F000412A03D0453A022A00F2D1809DF83230C8
:10160000042262F302038DF8323001239EE006FBD0
:1016100001213039034664E7742A26D07A2ADBD1C7
:101620009DF8313006220DE05A78682A9DF8312065
:1016300006D1012161F3C6028DF831209F1CCCE751
:101640001346022262F3C6038DF83130C5E75A789B
:101650006C2A9DF8312001D10421EBE713460322C7
:10166000F0E79DF831300522ECE79DF83130072294
:10167000E8E7BDF8303023F4F04323F0020343F4ED
:10168000804343F00203ADF83030A6E7A2F15801E1
:10169000202900F2848001A050F821F06117000099
:1016A0009F1700009F1700009F1700009F17000062
:1016B0009F1700009F1700009F1700009F17000052
:1016C000FD1500009F1700006117000021170000A2
:1016D000FD150000FD150000FD1500009F1700001E
:1016E000211700009F1700009F1700009F170000A0
:1016F0009F170000691700006117000085170000A0
:101700009F1700009F170000851700009F1700001B
:10171000611700009F1700009F170000611700006D
:101720009DF83210012003F0780360F30201402B92
:101730008DF8321002BF9DF8301041F001018DF894
:101740003010632A31D1003B18BF01239DF83020AF
:10175000C2F340010B4363F341028DF83020D8E619
:101760009DF832100220DEE79DF8322003F0780366
:10177000A3F14000032161F3020243428DF83220BD
:101780004341E3E79DF83220032113F0780F61F322
:1017900002028DF8322014BF01230023D6E79DF802
:1017A000303043F001038DF830300023CEE79DF94F
:1017B0003020002AB4BFDDF834904FF0FF39BAE68C
:1017C0009B077FF5C7AEDDF838809DF831200023F8
:1017D000CDE90D339DF8323003F00703012BC2F33E
:1017E000C30236D1D31E042B20D8DFE803F0030751
:1017F000071F1F0054F8040BC11704E0073424F03E
:101800000704F4E80201CDE90A019DF8303013F035
:10181000030654D002983B465246594605F099FFBC
:101820000028C0F243810544BA46DBE554F8040BB6
:10183000012A4FEAE071CDE90A0105D19DF828306F
:101840000A9300230B93E0E7022ADED1BDF92800BA
:10185000D2E7022B23D1D31E042B13D8DFE803F0E9
:10186000030A0A12120020680A900021231D0B911E
:101870001C46CAE7073424F00703F3E80201CDE968
:101880000A01F5E754F8043B0A93012A4FF00003DC
:101890000B93D3D0022AB8D1BDF82830D0E7042B5F
:1018A00007D1073424F00704F4E80201CDE90A0166
:1018B000ABE7032B04BF54F8043B0A93A5E79DF85C
:1018C00033007828B0D8622822D825283FF493AD79
:1018D0005828A9D10DF126030093DDE90A0104ABD4
:1018E0000CAA05F0EBFE8246B8F1000F0DF12600C0
:1018F0000CDB9DF83020A0EB0A036FF386129845AD
:101900008DF8302002D9A8EB03030D9380463DE00B
:101910006338152888D801A151F820F09D190000DE
:10192000011A0000291800002918000029180000D9
:1019300029180000011A00002918000029180000C9
:1019400029180000291800005F1A00002D1A000055
:10195000311A00002918000029180000751900002C
:10196000291800002D1A000029180000291800006D
:101970002D1A0000B8F1000FDDF828A00ADB41465F
:10198000504605F0A9FF0AEB00080026BAF1000F47
:101990000CD149E7504605F098FFF4E70A9B8DF813
:1019A000103000260DF111080DF1100AA8EB0A0302
:1019B00006B101339DF83220D0066BD502335206B2
:1019C0000D9948BF0E9A0B4448BF9B18B9F1000F00
:1019D00079DD9DF83020A9EB0309C2F3800303935E
:1019E000530770D4500664D546B1029B5946304621
:1019F000984700285ADB039B01351E46302359E0E7
:101A00001E0711D413F0100618BF2026DDE90A23A3
:101A1000002A73F10001BFF65DAF524263EB43034E
:101A2000CDE90A232D2655E72B26EFE7002651E7BF
:101A30000A9848B30DF1260300930CAA04AB0021C9
:101A400005F03CFEBDF8323003F0EF0343F4F04301
:101A500043F010038246ADF83230002644E70A9B7B
:101A6000072A3FF6E1AEDFE802F00D04060D080894
:101A70000D0D1D70D8E61D80D6E62846E917C3E98E
:101A80000001D1E61D60CFE6DFF8C4800646A8F16C
:101A9000050A8BE7110748BF013390E71846039307
:101AA0005946029B98470028039B04DA11B0BDE811
:101AB000F08F20234D444A46002AA5EB090109F185
:101AC000FF39EBDC0D4636B1029B5946304698474C
:101AD0000028EBDB01359DF83230D90601D41A0716
:101AE00006D5029B5946302098470028DEDB013599
:101AF0009DF83230DB0607D59DF83300029B59462E
:101B000098470028D2DB01350D9E2E44731B002B15
:101B100016DC029843465246594605F01AFE002844
:101B2000C4DB0544A944A9EB0503002B7FF77CAE79
:101B3000029B5946202098470028B7DB0135F2E781
:101B4000029B5946302098470028AFDB0135DDE77E
:101B50007287000038B54468816004F00304032CE8
:101B6000054602D02CB1002000E0006800236B6025
:101B700038BD054A05490648452305F06CFE024874
:101B8000452105F094FDEEE773870000748800009E
:101B900024820000014805F0DDBB00BFF87F000093
:101BA00008B5D0B14368042B11D100220368BFF3FC
:101BB0005B8F53E8001F012903D143E80020002870
:101BC000F7D1BFF35B8F074808BF104608BD3BB194
:101BD000006803F0A7FC0020F8E76FF4E040F5E7A9
:101BE0000148F3E7E98FFFFFEA8FFFFF10B50446D6
:101BF00018B90D4B0D485B689847616808290DD0EE
:101C000031F004030AD011F0020108D0084821463F
:101C100003F024FB002323600023636010BD2068D1
:101C2000142205F079FEF7E7DC000020968700001B
:101C30005003002010B5044618B9164B16485B68CF
:101C400098476368042B23D0082B21D0CBB9236895
:101C5000BBB912484FF0FF324FF0FF33214603F07B
:101C600091FA08B923681BB90A4B0D485B6898477D
:101C700020681422002105F04FFE636843F0020340
:101C80006360206806F035F8636843F00103636021
:101C900010BD00BFDC00002096870000500300202C
:101CA000BC87000008B508B34368042B10D101229B
:101CB0000368BFF35B8F53E8001F002903D143E89B
:101CC00000200028F7D1BFF35B8F0BD1002008BDA7
:101CD00053B100684FF0FF324FF0FF3303F022FBA7
:101CE0000028F3D00348F2E70348F0E76FF4E04040
:101CF000EDE700BFE98FFFFFEA8FFFFF08B5064958
:101D000006484023142205F0D8FFBDE808400449E6
:101D1000044805F081BB00BF700300205003002081
:101D200010800000008000002DE9F04FB0F81C90FA
:101D300085B019F0080F0446039222D001290CBF88
:101D400049F0100949F02009A0F81C9014342046ED
:101D500004F04EFF68B99F4A9F49A048AC2305F0A4
:101D60007AFD9F48214605F076FD9A48AC2105F0A2
:101D70009EFC039B83F31188BFF36F8F05B0BDE812
:101D8000F08F984FDFF8548209F00709022906D135
:101D9000204605F00AFD0028D8D0012868D1D4F8E3
:101DA00018B0A38BBBF1000F0ADA0026256823F0D8
:101DB0000703C4E9006643F00103A383019627E00B
:101DC00003F00702511F012934D8002123F0070333
:101DD000062A25689BB2C4E900110CD18D422A461F
:101DE00038BF0A462AB1E18B12680131E183002A2B
:101DF000F8D143F00203A383204605F0D6FC064643
:101E00000028DBD0A38B43F02003A383002301939E
:101E1000A38B03F007024A45029203D0A268002A6E
:101E200040F0F0801DB9019A002A00F036814FF091
:101E30000009E9E0042A0ED123F007039AB2A28335
:101E4000204605F0B2FC054618B142F02002A283FC
:101E500000250195DCE74046634940F21B133A46F2
:101E600005F0F9FC40F21B11384605F020FCEFE7C5
:101E7000032835D1B9F1000F0BD05C4940464FF42F
:101E8000AB733A4605F0E7FC4FF4AB71384605F00A
:101E90000EFC23685BB95649404640F257133A4658
:101EA00005F0D9FC40F25711384605F000FC2369D3
:101EB0001B6801935BB94F4940464FF4AD733A46F6
:101EC00005F0C9FC4FF4AD71384605F0F0FBA38B6B
:101ED00023F0070343F00603A3830025AB4697E7EF
:101EE000042832D1B9F1020F0BD04349404640F2E9
:101EF0005D133A4605F0AFFC40F25D11384605F03F
:101F0000D6FBE38B5BB13D4940464FF4AF733A4695
:101F100005F0A1FC4FF4AF71384605F0C8FB23690A
:101F20005B6801935BB93349404640F261133A461E
:101F300005F091FC40F26111384605F0B8FBA38B27
:101F400023F0070343F00403C6E7052832D1B9F1B3
:101F5000010F0BD02A4940464FF4B2733A4605F0C0
:101F60007AFC4FF4B271384605F0A1FB23685BB9E7
:101F70001F49404640F265133A4605F06CFC40F2BA
:101F80006511384605F093FB23699B6801935BB9A3
:101F9000184940464FF4B4733A4605F05CFC4FF4E0
:101FA000B471384605F083FBA38B23F0070343F09D
:101FB000050391E70C4940F26B133A46404605F0A1
:101FC0004AFC002540F26B11384605F070FB019584
:101FD00084E700BF8C880000B288000024820000E3
:101FE000C9880000E9870000748800000B880000A1
:101FF000178800003A8800005188000067880000B8
:10200000768800004FF0010943F0080304F1140A38
:10201000A383504604F0ECFD68B93A4A3A49AC2330
:10202000404605F018FC3948514605F014FC354887
:10203000AC2105F03CFB039B83F31188BFF36F8F4A
:10204000B9F1000F38D1002D4BD1019B13B13049AC
:10205000204698474FF02003EFF3118B83F312884B
:10206000BFF36F8F5046CDF80CB004F0B3FD68B9E4
:10207000244A28498123404605F0EDFB2648514675
:1020800005F0E9FB1F48812105F011FB504604F0E3
:10209000BFFDA38B23F00803A383A38BDA0628D507
:1020A00023F01003A3830121B4F81C9009F0070961
:1020B00000297FF46BAE49E6A1680029C3D00B6804
:1020C000029A002B38BF002399464B6820461E46D3
:1020D0005B46B047B9F1000FB5D0D9F8003049469A
:1020E000EEE72946029A2D685B46204605F079FB0B
:1020F000A9E713F020011EBF23F02003A3830221D0
:10210000D2E700BF8C880000B2880000C9880000B8
:102110001D210000DE880000F3880000F8B50446A9
:102120000D4600F114064FF02003EFF3118783F3FF
:102130001288BFF36F8F304604F04CFD68B90C4A2B
:102140000C490D48812305F086FB0C48314605F00B
:1021500082FB0748812105F0AAFA304604F058FDB9
:10216000A5613A4620460121BDE8F840FFF7DCBDF5
:102170008C880000DE88000024820000F3880000C4
:102180002DE9F04704460F4605F041FB051E5EDBD6
:1021900004F114094FF02003EFF3118A83F312883E
:1021A000BFF36F8F484604F015FD68B9384A3949C6
:1021B0003948812305F04FFB3848494605F04BFB71
:1021C0003348812105F073FA484604F021FDE38B82
:1021D000A28B4FF6FF718B4202F0070650D0022E01
:1021E00024D10133E38335464FF00108484604F01B
:1021F000FFFC68B9264A2A492748AC2305F02BFB87
:102200002848494605F027FB2148AC2105F04FFA44
:102210008AF31188BFF36F8FB8F1000F17D0002336
:1022200032463946204605F0DCFA10E0930701D02B
:10223000062E0FD100233B606368F3B9C4E9007731
:102240003546FEB9524602212046FFF76DFD28466D
:10225000BDE8F087052E18D0012E0BD012490E488C
:10226000124A40F2C91305F0F6FA104840F2C911BB
:1022700005F01DFA6FF0040504E01F606760DFE7FA
:102280006FF00A054FF00008B0E76FF08505F9E739
:102290008C880000DE88000024820000F3880000A3
:1022A000B2880000C988000076880000E987000035
:1022B0002DE9F84305464FF02003EFF3118683F331
:1022C0001288BFF36F8F234804F084FC68B9224A58
:1022D00022492348812305F0BEFA1E49214805F012
:1022E000BAFA1D48812105F0E2F91A4804F090FC81
:1022F0001D4B1C68002C38BF00249CB11B4FDFF81D
:1023000078804FF00C09D4E90132002D08BF134644
:102310002BB198F8142009FB02F2B85C98472468A6
:10232000002CF0D10B4804F063FC68B90A4A10494C
:102330000B48AC2305F08FFA06490E4805F08BFADE
:102340000548AC2105F0B3F986F31188BFF36F8F10
:10235000BDE8F883700800208C880000DE8800004B
:1023600024820000F3880000740800208008002008
:10237000B2880000C9880000E409002000F01F03B3
:1023800001229A400A4BBFF35B8F400903EB8000A8
:1023900050E8003F43EA020140E8001CBCF1000F96
:1023A000F6D1BFF35B8F1A4214BF012000207047A3
:1023B0008C08002030B51D4B1D7DBFF35B8F05F0F1
:1023C0001F0301229A401A4B690985B0D04303EBE1
:1023D000810353E8001F01EA000443E8004CBCF10C
:1023E000000FF6D1BFF35B8F114217D0114C0C22B6
:1023F00002FB054207CA01AB83E807000E4A7AB127
:1024000093E8070005F0A4FA0020FFF751FF0C2322
:102410006B430022E118E250C1E9012205B030BD52
:1024200082F31188BFF36F8FEEE700BFE40900204D
:102430007C08002080080020517900002DE9F0413F
:10244000374BDFF8F4801C7D88B007462046FFF745
:1024500095FF60B96E463A462146304605F008FAC7
:1024600096E807000C2505FB048585E807000C238A
:10247000634308EB030218F80300650904F01F0624
:10248000C8B37B1C0FD0D2F808E02648264A4FF488
:10249000004C00210023ECFB0E01FEF7AFFA0121F6
:1024A000381A04F077FD03F0C5F90120FFF700FFAB
:1024B000BFF35B8F1D4B0122B24003EB850353E852
:1024C000001F114343E800100028F8D1BFF35B8FD1
:1024D0000C2303FB048494E8070005AB83E80700A2
:1024E000134A1AB193E8070005F01FFAFFF762FFDD
:1024F00003F098FE01200F4ABFF35B8F0123B34026
:10250000DB4302EB850555E8002F1A4045E8002122
:102510000029F8D1BFF35B8F08B0BDE8F08100BFA0
:10252000E40900203F420F0040420F007C080020D9
:102530002B7900008C080020800800200B680133F4
:102540000B60014B1B68184720000020014B1860EE
:10255000704700BF2000002007B50B46002102464F
:102560000191034801A9FEF735FF03B05DF804FBB4
:102570003D25000008B54FF02002EFF3118382F3F0
:102580001288BFF36F8F00F0A1FC034805F063F9D8
:1025900000F00AF8FCE700BF0B8900000149102297
:1025A0000A60704710ED00E072B6404080F3118879
:1025B000BFF36F8FBFF34F8F30BF62B6BFF36F8F24
:1025C000704700BF72B6494081F3118820BF80F385
:1025D000118862B6704700BF01B572B60B4A9069A8
:1025E00000281EBF0021916105F060FB62B6EFF389
:1025F0000580A0F110004FEAC0000549014409C957
:102600009847BDE80140034908470000E40900205D
:10261000447E00003D28000030BFFFF7FDBF00BF33
:1026200012498A684FF030001044EFF3098C80E8BB
:10263000F01F202080F31288BFF36F8F0C4F4FF0F4
:102640000066CA698A603E60506F0023536780F35A
:10265000118804B5104600F0E7FABDE8044002F125
:10266000300090E8F01F8CF309887047E4090020DF
:1026700004ED00E01EF0040F0CBFEFF30880EFF351
:102680000980816911F8021C0229FFD001B505F00B
:1026900000F901BD43B2002B08DB012200F01F004E
:1026A00002FA00F05B09024A42F82300704700BFBB
:1026B00000E100E0054B420900F01F0053F8222022
:1026C000012303FA00F01040704700BF00E100E072
:1026D00070B54C1C072C05460E460FD9114A1249FD
:1026E0001248592305F0B7F81148314607232A4606
:1026F00005F0B1F80B48592104F0D9FF6BB2002B5B
:10270000ACBF03F160430B4B4FEA4414B8BF05F074
:102710000F05E4B2AABF03F561435C5583F800439B
:1027200070BD00BF348900006A8900002482000067
:102730008589000014ED00E00B4A08B50B4B22F030
:102740007F029A60BFF34F8FBFF36F8FD3F888205B
:1027500022F47002C3F8882002F05CFC04F086FDCD
:1027600000F0F6F902F060FC0000000000ED00E06F
:10277000094A0A49936809689967094958674B6883
:1027800043F080534B60002383F31188BFF36F8FB6
:102790009368986F704700BFE40900203081000003
:1027A00000ED00E042F8203C009B42F81C3C0A4946
:1027B000019B42F8183C029B42F8143C21F00101B5
:1027C0004FF0807342F8043C42F8081C0023203A82
:1027D00002654367704700BF7B7800000B4A0346E1
:1027E000906890B113F1160F406E05D0A0F1200251
:1027F0009A4206D8834204D281422CBF0021012193
:1028000000E00021002908BF00207047E4090020F3
:1028100008B5094B98600D46144600F005FA2046AD
:1028200085F30988002163B681F31188BFF36F8FA8
:102830000022002305F021F8E4090020044B9968E8
:10284000D869884203D003494FF080520A6070472C
:10285000E409002004ED00E0EFF30880EFF30981C4
:1028600001B5724600F0AEF801BD00BF002080F354
:102870001488BFF36F8F05F073FA00200D490860CC
:10288000BFF34F8F0C4880F3088800F07DF92020BB
:1028900080F3118809484FF40261401880F30988D9
:1028A000EFF314800221084380F31488BFF36F8F85
:1028B000FFF742FF94ED00E020140020A015002057
:1028C000234B70B515469A6A9A6A9A6A044690072D
:1028D0001AD5586B9A6A120616D519B19A6A22F05F
:1028E00080029A629A6A9A6A9A6AD6060FD49B6A9A
:1028F00099070CD40024164A936A43F0FF039362AD
:1029000000232B70204670BD6FF01500EAE7104ED3
:1029100073681A05EED52146FFF760FF044618B12B
:1029200080F309880224E6E7B36ADB06E2D5094AA8
:1029300009490A4840F2491304F08DFF084804F0A1
:102940008AFF044840F2491104F0B1FED3E700BF0A
:1029500000ED00E0C5890000FF890000248200002E
:10296000498A00000D4B9A6A9A6A9A6A920508D5BC
:102970009A6B9A6A120404D518B19A6A22F400423A
:102980009A62064B9A6A9A6AD20558BF9A6A9A6AFC
:10299000002042F47F429A620870704700ED00E028
:1029A000074B9A6A9A6A9A6A9A6A9A6A9A6A9A6AB9
:1029B0006FEA02426FEA12429A620020704700BF3B
:1029C00000ED00E070B5544B5C688AB00D46C4F36E
:1029D0000804002686F31188BFF36F8F02F07F434F
:1029E000B3F17F4F08D102F00C03082B04D012077B
:1029F0005CBF054601267DB9484A4949494840F22D
:102A0000F23304F028FF484804F025FF434840F221
:102A1000F23104F04CFE002500238DF80730E31E50
:102A2000032B72D8DFE803F002696D493A4BDC6A88
:102A300014F0020469D1DA6A002A18DBDB6A5B0051
:102A40004ED5AB6933F8022C4DF602739A420DD085
:102A500003F1604303F626631B780BB30DF1070205
:102A600001212846FFF72CFF044600E02C689DF862
:102A700007309BB92022294602A804F042FF099B97
:102A8000002E44D0C3F3080222B96FEA53236FEA41
:102A90004323099302A9204604F0F9FE0AB070BD51
:102AA000224B1B782BB10DF107010120FFF75AFFD4
:102AB000DAE71F4B1B889BB213B1FFF771FFD3E717
:102AC0001C49164A174840F2C32304F0C4FE1A48B2
:102AD00004F0C1FE40F2C321104804F0E8FDC6E74F
:102AE00014490E4A0F4840F2C72304F0B4FE1348BD
:102AF00004F0B1FE40F2C721EEE70DF1070200211C
:102B0000AFE70DF107010020D0E70024AFE723F481
:102B1000FF7323F00103BCE700ED00E0C58900006E
:102B20006C8A0000248200007F8A000029ED00E00A
:102B30002AED00E074880000BD8A0000E18A0000F0
:102B4000024A536943F010035361704700ED00E0FF
:102B5000044800232021C2180133302B82F80013CF
:102B6000F9D1704700E100E0064A11680023C1F383
:102B7000072118468B4200D17047936010610133E2
:102B8000F8E700BF90ED00E008B572B6002383F3CC
:102B90001388FFF7E9FF144B4FF0FF32C3F8802092
:102BA000C3F88420C3F88820C3F88C20C3F8902091
:102BB000C3F89420C3F89820C3F89C20C3F8802160
:102BC000C3F88421C3F88821C3F88C21C3F890216D
:102BD000C3F89421C3F89821C3F89C2162B6BFF3CF
:102BE0004F8FBFF36F8F08BD00E100E0064B9B687D
:102BF000834207D1EFF3058323B1044A536843F0BE
:102C00008053536003F076BDE409002000ED00E03E
:102C1000024B034A0348012100F068B80000042079
:102C20000000002024800000426E054B203A1A600C
:102C3000044A2021C3E901121846012100F07EB8A0
:102C40009008002000000B15F0B51E4F00268E42A4
:102C500001DB1046F0BD446884B353B104F1FF3C7E
:102C600014EA0C0F18D11F2C16D905681CEA050FA1
:102C700012D1202C0568D0F808C0D2B20FD9B4F117
:102C8000004F0ED8013CB4FA84F4C4F11F04640070
:102C9000072A4CEA040406D96FF01502D9E7082484
:102CA000F6E73E24F4E725F01F05154345F010052F
:102CB00044F00104BA60FD6001323C6101360C3021
:102CC000C5E700BF90ED00E0034B05225A60BFF35B
:102CD0004F8FBFF36F8F704790ED00E0BFF35F8FB2
:102CE000014B00225A60704790ED00E038B50E4D60
:102CF00001232A780C46FFF7A7FF2870163011D160
:102D000040F21113094A0A490A4804F0A4FD214679
:102D1000094804F0A0FDBDE83840044840F2111114
:102D200004F0C5BC38BD00BF440A0020118B000070
:102D30007488000024820000488B000010B5124AFD
:102D4000002312780C46FFF77FFF10F1160F08D012
:102D50000E4B0022072800DD10BD98601A6101307B
:102D6000F8E70B4A0B490C484FF4987304F073FDD5
:102D700021460A4804F06FFDBDE8104004484FF4B6
:102D8000987104F094BC00BF440A002090ED00E06C
:102D9000118B00007488000024820000748B0000F6
:102DA000254910B50C68082C13D94FF4A473234A95
:102DB0002349244804F04FFD23480822214604F00B
:102DC0004AFD1E484FF4A47104F071FC4FF0FF302F
:102DD00010BDFFF783FF48681C490022944200F1B0
:102DE0000C0019D11A4B1C70FFF76EFF0B68C3F370
:102DF0000723082B0ED01749104A12484FF4D473FA
:102E000004F029FD144804F026FD0C484FF4D47159
:102E100004F04DFC0020DBE78A6050F80C3C23F006
:102E20001F03134343F01003CB6050F8043C43F0FE
:102E300001030B610132D1E730800000118B0000EB
:102E40007488000024820000A18B000090ED00E057
:102E5000440A0020D58B0000258C0000014B18602F
:102E6000704700BF240000204FF02003EFF31181D2
:102E700083F31288BFF36F8F0F4A0123C2F84035E6
:102E80004FF08042C2F878350C4A1268082A08D1FF
:102E90000B4A1268052A04D80A48825C0AB10A4A19
:102EA00013604FF080430122C3F8802581F311881D
:102EB000BFF36F8F0020704700E001403001001029
:102EC00034010010558C0000380600404FF080435C
:102ED000C0B2C3F81C05BFF34F8F0549054BCA6844
:102EE00002F4E0621343CB60BFF34F8F00BFFDE7F6
:102EF00000ED00E00400FA0520B1034B800143F02F
:102F000001031847704700BFF07F00002DE9F04132
:102F1000104C071BC7F347174FF00C0808FB07F8C6
:102F2000064608F148000D462044402104F01BFDF0
:102F3000011E09DB084B4444C4E91035074B53F824
:102F40003730BDE8F041184730462B46BDE8F04128
:102F5000184700BFAC080020C97900006880000055
:102F600038B5CCB2012C054609D9094909480A4AA5
:102F7000792304F070FC0848792104F098FB2B6950
:102F80000C2104FB0134A06C00F0070038BD00BF29
:102F9000988C0000248200005B8C0000F8B5CCB255
:102FA000012C0769054616460BD918491848194AD5
:102FB00040F24D1304F04FFC164840F24D1104F05E
:102FC00076FB4FF02003EFF3118283F31288BFF3F7
:102FD0006F8F0C2303FB0471896C11F0C00101D0C9
:102FE0008E4210D103FB047301219964002082F307
:102FF0001188BFF36F8F28B9696801EBC404636857
:1030000098470020F8BD4FF0FF30F0E7988C0000A3
:10301000248200005B8C000070B50D460649411A01
:103020000446491105484022FFF7B8FF2B460146E8
:103030002046BDE870401847AC080020CC7D000059
:10304000002270B5012104461046FFF741FB002025
:10305000FFF720FB0F4801F053F80F4B984215D1B2
:1030600001F072F826690D49304604F0DFFB0028B4
:103070000BDB0125B5642469084904F1200004F044
:10308000D5FB002801DB6565002070BD6FF00400F2
:10309000FBE700BFD53000000000AD0B78800000DA
:1030A00001460C2309484B4370B5C418D4E91056A7
:1030B000002248332264184404F073FC2DB13246D8
:1030C0002B460348BDE87040184770BDAC0800208F
:1030D000CC7D0000012808B506D0032808D0A8B987
:1030E000104B9B6C5B071BD1BDE80840FFF7D8BFB6
:1030F0000D490E4A0E4840F25E2304F0ACFB40F24C
:103100005E21BDE80840094804F0D1BA0649074AE3
:10311000074840F2622304F09EFB40F26221F0E790
:1031200008BD00BFAC080020748800005B8C000064
:103130002482000008B54FF02003EFF3118183F3E0
:103140001288BFF36F8F124A136843F0020013F026
:10315000010310600CD04FF08042D2F80C34D2F84A
:103160000C2413F0010303D00A4804F01AFC0123D5
:1031700081F31188BFF36F8F23B1BDE808400020B1
:10318000FFF78EBFBDE80840012000F0FDBF00BF83
:1031900004090020F4080020094BBFF35B8F53E8BB
:1031A000002F22F0020143E800100028F7D1BFF3FE
:1031B0005B8FD30702D4012001F03AB8704700BFFB
:1031C000040900201FB500220123CDE90223094A8A
:1031D000CDF800D06B46CDF804D004F007FC0028F1
:1031E00005DB4FF480420023684603F075FB05B011
:1031F0005DF804FBE77900002DE9F8434949BFF386
:103200005B8F0546012251E8003F41E8002000287D
:10321000F9D1BFF35B8FA3B9434944484B60CB60FE
:103220008A60FEF7ADFF00280BDA41494148424A67
:103230004FF4087304F00FFB3F484FF4087104F09B
:1032400036FAADB36B1E012B56D8012D07D14FF0C6
:103250008043D3F81C3403F00303012B28D004F07F
:103260006FFD044618B9354B1B78002B52D14FF037
:103270002003EFF3118683F31288BFF36F8F0124CD
:103280002F4FDFF8C480DFF8C4904FF08042D2F8AF
:103290001834D2F81824D2030CD503F00303012B01
:1032A00001D0012D06D10CB386F31188BFF36F8FC7
:1032B000BDE8F883ACB13046FFF784F94FF08042A7
:1032C000D2F81835002BE0D139680029DDD03B60F9
:1032D0003B680123C2F81835C8F88031C9F80030BE
:1032E000D3E70021212003F0C7F9E7E74FF080433F
:1032F0000222C3F80423DBE712490E480E4A40F2CB
:10330000322304F0A8FABDE8F8430B4840F232211A
:1033100004F0CDB94FF080430222C3F808230646DB
:10332000AEE700BF080900209C080020CC08002060
:10333000BC8C0000248200005B8C0000550E002035
:10334000040100407488000000E100E00800004033
:1033500008B5084B0848186004F09EFC38B10748CF
:10336000FFF77CFD0548FFF7F1F8002008BD6FF07E
:103370001200FBE70C0900202C7E000081330000C6
:103380000A2838B5074D044604D1286883680D2102
:103390005B68984728688368E1B25B689847204675
:1033A00038BD00BF0C09002070B5056916460C46F3
:1033B00061B92249224A2348242304F04CFA2248C6
:1033C00004F049FA1E48242104F071F9636863B9D6
:1033D0001E491B4A1B48252304F03DFA1C4804F0F3
:1033E0003AFA1748252104F062F96B685BB10022B4
:1033F0009C4213D123685AB9AA686B60944200D1E9
:10340000AB600023236076B9002070BD0B46EFE768
:103410001360AB689C4208BFAA60F2E719681A46BD
:103420000029F3D13EB16B682360A8686C60002866
:10343000EAD1AC60E9E76FF01500E6E7F88C000030
:10344000CB8C000024820000018D0000108D000054
:10345000228D000043092DE9F04703D0012B36D01F
:10346000BDE8F0871B4F3B695C68002CF8D02568ED
:10347000DFF86C80DFF86C90DFF86CA000F01F00C4
:103480000126002D06FA00F638BF0025A3681E426B
:1034900014D0636863B9494645234246504604F058
:1034A000DAF90D4804F0D7F94521404604F0FFF859
:1034B000D4E901322146324038469847002DCFD01A
:1034C0002B68002B38BF00232C461D46DEE7034F38
:1034D000C9E700BFE47D0000228D0000FC7D0000F4
:1034E000CB8C0000398D0000248200007FB540683D
:1034F000057B01F01F04B2F5005F44EA45144FF06C
:10350000000504D1204601F02BFA002054E0B2F56A
:10351000804FCDE9025551D1B3F5003F0CBF0423D4
:1035200005238DF80830836823FA01F111F00101B9
:1035300055D1B2F5A03F52D166094AD04FF6FF737C
:10354000012E08BF194604F01F05E940CA070BD435
:103550002B492C482C4A40F2292304F07CF92A48B4
:1035600040F2292104F0A3F86EB1012E34D027498E
:103570002448254A40F22E2304F06DF9224840F2F7
:103580002E2104F094F84FF0A04305F5E07553F8B0
:103590002530DB0723D40DF107052946204601F02D
:1035A00009F91B4B984219D1284601F063F9194BD0
:1035B000984213D06FF00B0004B070BDB3F5C02F6C
:1035C00005D0B3F5003F0CBF02230123A9E7032375
:1035D000A7E74FF0FF31B6E70F4BD6E7039500237F
:1035E000194602AA204600F0C7FF0A4B984204D1B0
:1035F0000121204601F044F987E76FF00400DBE782
:10360000788D000024820000458D00007488000041
:103610000400AD0B0000AD0B0003005010B501F02D
:1036200019F9044668B901F0EDF8084B98420AD13F
:103630000748214601F0B8F8224605210620FFF789
:1036400047F8002010BD6FF00400FBE70000AD0B51
:10365000553400002DE9F04347683B7B01F01F051E
:1036600085B00E4645EA43151446CAB902A9284654
:1036700001F0A0F80446284601F094F9484B98421E
:1036800004D06FF0040005B0BDE8F083844205D19A
:103690009DF8080001F0E8F8A042F2D10020F2E71E
:1036A0004FF000090DF103013046CDE9029901F018
:1036B00081F84B46804602AA4946284600F05CFF46
:1036C000374B984202D06FF01500DCE7804503D1FC
:1036D0009DF8030001F0C8F8A3054ED5314B324ADE
:1036E000234093423AD00CD8062B14D004D893B17F
:1036F000022BE8D104230EE0B3F5801FE3D10123B0
:1037000009E02A4A93422BD0B3F5A00F2AD0B3F593
:10371000800FD8D102238DF8043084F48073C3F372
:103720000023E0068DF8053054BFC4F34013032393
:1037300021058DF8063017D57B68012101FA06F6C0
:10374000C3F80865002201A9284600F0BDFF144B0C
:10375000984214BF6FF01500002094E70723DAE7C2
:103760000523D8E70323D6E7620541BF7B68012123
:1037700001FA06F6C3F80C65E4E7E3064FF0000330
:1037800054BFC4F3401403241A4601A928468DF8F7
:10379000044000F0F1FE024B98423FF47FAF92E705
:1037A0000000AD0B0600F000060010000200400013
:1037B000F0B54B79012B26D0032B21D110268B7924
:1037C000032B1DD1CC790CB1012C19D10A7912B17E
:1037D000022A15D10E220B684568B3F5164F2D68E5
:1037E00065D02DD8B3F5165F64D016D8B3F5966FB3
:1037F00062D00AD8B3F5967F61D0B3F5167F61D059
:103800006FF0850052E00026D9E7B3F5166F5CD063
:10381000B3F5965FF4D1374B3CE0B3F5E14F57D0A9
:1038200007D8B3F5615F55D0B3F5964FE8D1324B69
:1038300030E047F61227BB42E2D14FF4000329E003
:10384000B3F5613F48D013D8B3F5963F47D009D8B8
:103850004DF6C027BB4244D0B3F5614FD0D14FF4F1
:103860006B0317E0B3F5E13FCAD14FF0EB7311E002
:10387000B3F5612F38D008D8204FBB4237D0B3F50D
:10388000E12FBDD14FF0E86304E01D4FBB42B7D13B
:103890004FF08053C5F82435036903C934432243EC
:1038A0000433C5F86C2583E803000020F0BD4FF415
:1038B0001D03EFE7134BEDE74FF49E23EAE74FF4C8
:1038C000A033E7E74FF41C33E4E74FF41D23E1E7AF
:1038D0000D4BDFE70D4BDDE74FF06C73DAE70C4B78
:1038E000D8E74FF46503D5E74FF07063D2E74FF0A8
:1038F0008063CFE700B0130000A04E0090D003001B
:1039000040420F000050270000C0750000F03A0050
:1039100000903A010268530910B504462CD0012BDF
:103920004FF6FF7318BF002302F01F02D340DB07DE
:103930000BD414491448154A40F2292303F08BFF95
:10394000124840F2292103F0B2FE236803F01F025F
:103950005B0922600DD0012B11D00D490A480B4A9A
:1039600040F22E2303F077FF084840F22E2103F0A7
:103970009EFE4FF0A04010BD4FF0FF33D4E7054846
:10398000F9E700BF788D000024820000458D00001B
:103990007488000000030050F8B5066905460F461C
:1039A00004F0CEF910B92C4B1B7883B94FF02003EB
:1039B000EFF3118483F31288BFF36F8F284604F06E
:1039C000A0F828BB84F31188BFF36F8FEEE764245F
:1039D000284604F096F870B9012004F0E4F8013CA0
:1039E000F6D10021212002F047FEF0E784F3118890
:1039F000BFF36F8FF5E74FF02003EFF3118483F3EC
:103A00001288BFF36F8F284604F07BF80028EDD0B2
:103A100006F8107F69680B680122C3F84465C3F893
:103A200048250022C3F82021D3F82001C3F85821EB
:103A3000D3F858214A68D20641BF0822C3F80025AE
:103A40004FF48002C3F8042301229A6084F31188A2
:103A5000BFF36F8FF8BD00BF550E00202DE9F7436F
:103A6000D0F804800769D8F800400023C4F8003576
:103A700038604568EB680646581C13D001A80193CE
:103A8000FFF748FF019A01239340C0F80835EB681F
:103A9000019301A8FFF73EFF019B03F5E0730322AA
:103AA00040F823202B69591C11D02A7F0193002A4A
:103AB00001A814BF4FF003094FF00009FFF72AFFD8
:103AC000019B03F5E0734FEA890240F823206B69FC
:103AD0005A1C13D001A80193FFF71CFF019A012380
:103AE0009340C0F808356B69019301A8FFF712FFF6
:103AF000019B03F5E073032240F82320AB69581CB7
:103B000011D06A7F0193002A01A814BF4FF0030966
:103B10004FF00009FFF7FEFE019B03F5E0734FEA4B
:103B2000890240F82320D5E903122B68C3F80C154D
:103B3000C3F81425D5E90512C3F808153169C3F88F
:103B4000102504313046FFF733FE0546002846D1E4
:103B5000D8F80430990719D507F1120001F020F8C0
:103B6000224B98423FD1B87CC30003F1804303F558
:103B7000F83304F10C0204F59071C3F81015C3F882
:103B800014251B4A01238340C2F804350823C4F8D6
:103B9000003598F808305BB9C4F81031D4F810310A
:103BA00007F11103C4F834350123C4F83835236014
:103BB000D8F804309A075CBF4FF48072C4F804232D
:103BC000DB0644BF4FF48003C4F8043310370023EE
:103BD000C4F84475C4F848350123A360E36028465F
:103BE00003B0BDE8F0836FF00405F8E70000AD0B0B
:103BF00000F00140194970B5044622F07F4608687C
:103C0000C1E90023A6F50013101AB3F5400F4FF0D9
:103C100000050AD2124B19680A060B0A92191149BB
:103C200043F10003C1E90023012503F003FAA300D7
:103C300003F1804303F58833D3F84025B2420BD11A
:103C40001DB94FF40002C3F84025074B4FF48030F4
:103C500000FA04F4C3F8444370BD00BFB80100206B
:103C600030090020A00100200010014010B5012300
:103C70008340114ABFF35B8FDC4352E8001F01EA27
:103C8000040C42E800CEBEF1000FF6D1BFF35B8F0B
:103C90004FF4803202FA00F002F1804202F58052C5
:103CA000C2F80803BFF35F8FBFF36F8F0B4214BFDF
:103CB0000120002010BD00BF2C0900200123124A62
:103CC000BFF35B8F834052E8001F194342E8001C9A
:103CD000BCF1000FF7D1BFF35B8F0C4A4FF4803378
:103CE0008340C2F804330A4BBFF35B8F1B68BFF3FA
:103CF0005B8F23FA00F0C30742BF064B4FF400323C
:103D0000C3F80021704700BF2C09002000100140BB
:103D10002809002000E100E00D4B1B68190A180675
:103D2000BFF35F8F0B4BD3F80435C01841F100018E
:103D3000B3F5801F0AD2084BD3E90023994208BF8C
:103D4000904203D210F1807041F10001704700BF32
:103D50003009002000100140A00100202DE9F04FA3
:103D600085B016461F460546FFF780FF0190FFF716
:103D7000D3FFB94208BFB0427FD2B6EB000867EB71
:103D8000010900234FF080724B4508BF4245C0F047
:103D90008580444B03EB0513D3E902239F4208BF00
:103DA000964254D04FEA85094FF4803B09F180498F
:103DB00005F150080BFA05F209F588394FEA880831
:103DC0001FFA88F80292384AD9F8400526F07F4356
:103DD00008F1804808F588381C469346D2F804A5B7
:103DE000A0EB0A0020F07F402AF07F410128C9F8AB
:103DF000401505D10393132003F0ACFF2A4A039B1F
:103E000002990AF1020CA4EB0C0020F07F40B0F5FF
:103E1000000F88BF64460020C8F80000D8F80000F2
:103E2000CBF8441324F07F40C9F84005DBF80405C3
:103E3000824506D0201A023820F07F40B0F5000FEE
:103E400019D8E41A24F07F44321947F10003154CC5
:103E5000290104EB0510C0E902230E9A0F9B625062
:103E600043600024019B13B12846FFF727FF20463B
:103E700005B0BDE8F08F2046B0E701230B4ABFF341
:103E80005B8FAB4052E8001F194342E80010002846
:103E9000F8D1BFF35B8F32463B46D8E76FF015048D
:103EA000E0E700BFA8010020001001402809002021
:103EB00073B5194B194D00244FF0FF304FF0FF310F
:103EC000C5F80845C3E902014FF48033C5F804334F
:103ED000134B02264FF400320121C5F80463112070
:103EE000C3F880212246FEF7F3FB1120FEF7D2FB38
:103EF0000C4A012313600C4A2B6013600B4B0C4AD5
:103F00000093019400232046FFF728FF3046FFF777
:103F100073F9204602B070BDA801002000100140D6
:103F200000E100E0081001402C090020F53B0000F2
:103F3000FFFF7F002DE9F743344CD4F804339A0790
:103F400009D5334B1A6832B100221A60314A1B6816
:103F50001368013313604FF02003EFF3118283F3F2
:103F60001288BFF36F8FD4F80433DB0312D5BFF38D
:103F70005B8F294B53E8001F21F0010043E8000646
:103F8000002EF7D1BFF35B8F244B002936D119687F
:103F9000002933D1002382F31188BFF36F8F53B30D
:103FA000FFF7BAFE06464FF02003EFF3118083F3CC
:103FB0001288BFF36F8F1A4BD3E90289494508BFB6
:103FC00046454FF000021ED34FF0FF364FF0FF374B
:103FD000D3E90015C3E902671A604FF48033C4F8CF
:103FE000483380F31188BFF36F8F21B100954246AB
:103FF0004B460020884703B0BDE8F08300211960DC
:104000001B680123C7E71146EBE700BF0010014022
:10401000041101403009002028090020401101400E
:10402000A8010020144B13B5B0F1FF3F08BF18469C
:10403000441E002C1EDD9C42A8BF1C46FFF76CFEF0
:104040000E4B0F49D3E90023801AB0F5000F28BFAB
:1040500000240130044408480091844228BF0446EB
:1040600012194FF00000019043F10003FFF776FEB4
:1040700002B010BD0024E1E7FFFF7F00B80100207F
:10408000F53B000008B5FFF747FE024B1B68C01A5E
:1040900008BD00BFB801002008B578B101281CD0C8
:1040A000144A154915484FF44F7303F0D4FB1148D7
:1040B0004FF44F7103F0FBFA00200DE031B14FF0E7
:1040C0008043D3F8183403F003030B604FF08043B0
:1040D000D3F81804C0F3004008BD31B14FF080435D
:1040E000D3F80C3403F001030B704FF08043D3F886
:1040F0000C04EFE7B08D00007488000024820000FB
:1041000010B5044648B90A490A480B4ABD2303F0D2
:10411000A2FB0948BD2103F0CAFA084B1A7922B95B
:10412000012207481C609A8010BD0648FCE700BFCA
:10413000218E000024820000E48D0000340900205C
:104140000000AD0B0C00AD0B08B50B4B1B794BB948
:104150000A490B480B4AD62303F07DFB0948D621B8
:1041600003F0A5FA0020FEF7A5FA18B9BDE808404B
:10417000FEF790BA08BD00BF340900202F8E000062
:1041800024820000E48D0000224B1B7913B5044605
:104190005BB921492148224A4FF4897303F05BFB44
:1041A0001F484FF4897103F082FA74B1012C27D0B3
:1041B0001B4A1C4919484FF4A27303F04CFB1848E2
:1041C0004FF4A27103F073FA16E001A92046FFF73D
:1041D00063FF4FF0804388B1019A012A0ED1C3F8E2
:1041E0001825114B00221A601B684FF080430222F1
:1041F000C3F8042301229A6002B010BD0022EEE74A
:104200000A4B00221A601B684FF08043C3F8044336
:104210001C60F1E7340900202F8E0000248200008A
:10422000E48D00007488000004010040000100409B
:1042300037B52F4D2A7904465AB92E492E482F4AB0
:1042400040F24B1303F007FB2C4840F24B1103F0F4
:104250002EFA7CB1012C28D029492748274A40F260
:10426000671303F0F8FA254840F2671103F01FFACC
:1042700003B030BD4FF080430222C3F80823C3F8D7
:10428000044103F5827301221B681E4B42F2107435
:104290001A6000210846FFF7FFFE0028E8D0012041
:1042A00003F081FC013CF4D1E2E74FF080430022AF
:1042B000C3F80843C3F8002103F580731B68124B51
:1042C0001C608DF8074042F210740DF107010120C7
:1042D000FFF7E2FE10B900236B71C9E79DF80700F4
:1042E0000128F8D103F05FFC013CEED1F3E700BFF9
:1042F000340900202F8E000024820000E48D00008D
:10430000748800000C00004004000040164B07B504
:104310001A686AB100221A601B684FF080430122BC
:10432000C3F80823114B587910B95A711B68984784
:104330000F4B1A686AB10020186001A91B68FFF7CB
:10434000ABFE019A4FF0804332B90122C3F8182521
:104350009A6003B05DF804FB0222C3F80823034B04
:1043600001201B689847F4E7000100403409002051
:104370000401004070B501250368B3FA83F2202AD6
:10438000C2F11F0414D0BFF35B8F05FA04F223EAD5
:10439000020250E8006F9E4204D140E8002CBCF1BC
:1043A000000FF6D1BFF35B8FE6D102480C7070BDF1
:1043B0000148FCE70000AD0B0200AD0B0368CB40E9
:1043C000DB0710B515D4012303FA01F10368BFF32D
:1043D0005B8F41EA030250E8004F9C4204D140E861
:1043E000002CBCF1000FF6D1BFF35B8FEED1024879
:1043F00010BD0248FCE700BF0000AD0B0400AD0B90
:10440000054B083033F8100000F02200A0F1220321
:1044100058425841704700BF5000002070B500F16D
:1044200008030C4C34F81330DA0505460E4607D560
:10443000C3F3432304EBC30254F833305268984764
:10444000A3682BB1E26831462846BDE870401847A2
:1044500070BD00BF50000020194B083010B533F874
:104460001020D1051DD5C2F3432122F4F85223F8C0
:10447000102003F11004002034F8022B12F4807F86
:1044800003D0C2F3432291420BD001303028F3D144
:10449000002243F831200B48FFF790FF0A4B984267
:1044A00000D110BD09490A480A4A4FF4997303F034
:1044B000D2F9BDE8104007484FF4997103F0F7B8FE
:1044C00050000020C40000200000AD0BB18E0000A1
:1044D000248200004D8E000038B50A4C00F108051A
:1044E00034F815309A0606D55B0B074A03F5A2731C
:1044F000002142F82310FFF7AFFF002324F8153006
:1045000038BD00BF500000200060004010B50446D8
:10451000006803F04AFB58B912491348134A40F2A5
:10452000292303F098F9114840F2292103F0BFF83C
:10453000236803F01F025B0922600DD0012B0ED00F
:104540000B490948094A40F22E2303F084F9074831
:1045500040F22E2103F0ABF84FF0A04010BD05480B
:10456000FCE700BF788D000024820000458D00002C
:104570007488000000030050F0B5044685B017466B
:104580001D46F1B1FFF73CFF10B14A4805B0F0BD40
:104590000B46CDE900008DF80E008DF80F000DF1EF
:1045A0000F020DF10E01204603F014FB424A04F104
:1045B000080132F8113023F0020343F0010322F81E
:1045C000113097B13C4B3E787A6804F1080033F81B
:1045D00010108F070CD5002AD7D133F8102022F005
:1045E0001C0242EA860223F81020CDBB3348CDE7F7
:1045F00021F02001C904C90C23F81010002AECD0C6
:10460000032EC2D817782EB92D4A07F5A27142F8A9
:104610002160E2E7BA0002F1804202F5C04241EABD
:104620004731D2F810C52CF0030CC2F810C5D2F8EF
:1046300010C52CF44F3C2CF4407CC2F810C5D2F8C5
:1046400010E54FEA042C0CF47C5C4EEA064E4CEA72
:104650000E0C41F0200123F81010C2F810C5BCE781
:10466000D5E900672046FFF7F7FE002EBED0124DB9
:104670002B689E4204D16B689F4201D100220AE060
:1046800010480DF10F01FFF775FE0C4B98427FF4B7
:104690007DAF9DF80F2045F8326005EBC20308346A
:1046A0005F6035F8143043EA422343F4807325F801
:1046B00014309BE70400AD0B500000200000AD0B50
:1046C00000600040C4000020F0B5044685B01546E7
:1046D00009B300F10807314E36F81730980701D4B6
:1046E0009A0658D413F01C0F02D04B78012B52D0ED
:1046F00001238DF80F300023CDE900134A1C8B1CD9
:1047000020460DF10F0103F065FA36F8173043F03B
:10471000030326F8173015B9214805B0F0BD1F4E28
:1047200004F1080736F81700830734D595F800C060
:104730006146890020F0200001F18041C00401F5AC
:10474000C041C00C26F817000023C1F810356A7864
:10475000002AE1D0D1F81035AD7823F4991323F471
:10476000F853C1F81035D1F810E5230203F47C5357
:10477000120443EA0E0302F440322D05134305F4FC
:10478000801540EA4C302B4340F0200026F81700FB
:10479000C1F81035C0E70348BFE700BF5000002054
:1047A0000000AD0B0400AD0B014BC3E902017047E3
:1047B0005000002038B504460D4659B90B490C4845
:1047C0000C4A40F2352303F046F80A4840F23521FE
:1047D00002F06DFF0834084B33F814309A0643BFDB
:1047E0005B0B2B700548064838BD00BFC58E000026
:1047F000248200004D8E0000500000200000AD0B10
:104800000400AD0B38B50E4C94F87850B5B9602261
:10481000294604F1100003F07FF80620FDF73AFF67
:10482000084B09481D601B68084B4FF00042C3F855
:104830000423012384F87830636738BD0448FCE71B
:10484000500000207C6100400000AD0B0060004083
:104850000500AD0B034B93F87800003818BF01201A
:10486000704700BF5000002001460148FFF7A6BD79
:10487000C000002001460148FFF77CBDC0000020B9
:10488000F7B5314D00F10807044635F8173013F03D
:104890001C0F0E460BD12D492D482E4A40F2DF3316
:1048A00002F0D9FF2B4840F2DF3102F000FF35F86B
:1048B000170083061FD510F002031CD1410B0846D8
:1048C00003F084F900F1804000F5C0400360036804
:1048D0008B0003F1804303F5C043D3F8102542F069
:1048E0000102C3F8102526B11B4A01238B40C2F8F0
:1048F000043303B0F0BD5EB918491548154A40F2BB
:10490000EE3302F0A8FF134840F2EE3102F0CFFE82
:1049100035F81730C3F38203042B10D0052B10D0C9
:1049200001A80194FFF7F2FD019BD0F81015D940C2
:1049300001F001010231204603F097F9D9E7032184
:10494000F9E70221F7E700BF50000020CF8E0000FA
:10495000248200004D8E000000600040E48E0000C4
:104960000E4B00F1080233F81230990613D59A075E
:1049700011D45B0B01229A409B00094903F180434B
:1049800003F5C043C1F80823D3F8102522F0030231
:10499000C3F810257047002103F067B950000020CC
:1049A000006000400E4B00F1080213B513F81230FE
:1049B000DB07044611D5FFF7D3FF2046FFF78CFD38
:1049C00001A80194FFF7A2FD019B03F5E073022209
:1049D00040F82320034802B010BD0348FBE700BFA6
:1049E000500000200000AD0B0400AD0B2DE9F04F8E
:1049F000654B66486649002589B001222C461E6831
:104A000036B1D0F8046316421EBF1C601E68154301
:104A100004338B424FEA4202F1D15E4F3B687BB3D5
:104A20004FF0A0435C4ED3F820250692C3F8202512
:104A3000D6F820350793C6F8203501960DF11809F0
:104A40004FF000084FF0010BD9F80030F3B908F12E
:104A50002008B8F1400F09F10409F5D13B603B682B
:104A600001994FF0A043D3F820250692C3F82025E2
:104A7000019BD3F820350793C1F820351343DDD1CE
:104A80000124002D68D109B0BDE8F08F93FAA3F39B
:104A9000B3FA83F308EB030606F108023F4B0596D1
:104AA00033F81220C2F38203F40802939A4606AB4D
:104AB00006F007000BFA00FC185D20EA0C00185500
:104AC000910805A80391FFF721FD059C039904F5C2
:104AD000E0744B0750F82440C4F3014423D55146F9
:104AE0003046FFF79BFC05A80596FFF70FFD059ADA
:104AF00002F5E072E4B250F82220C2F3014294427F
:104B000007D10021304603F0B0F82146304603F0CB
:104B1000ACF805A80596FFF7F9FC059B0BFA03F323
:104B2000C0F8203590E7022C0CBF0321022130464B
:104B300003F09BF8029B032B04D0022C07D1BAF19F
:104B4000010FE6D151463046FFF768FCE1E7032C40
:104B5000DFD1BAF1020FF4E795FAA5F3B3FA83F3C4
:104B600004FA03F29B0003F1804303F5C04325EAF6
:104B70000205D3F81005D3F81015C0F30520C1F3D2
:104B80000141FFF74BFC7CE7006100400060004002
:104B9000206100407C610040000300505000002074
:104BA00001460148FFF7E6BBCC000020034B186824
:104BB000A0F1080358425841704700BF300100106F
:104BC000064B1B68082B06D1054B1B68052B02D82A
:104BD000044AD05C70470020704700BF30010010CD
:104BE00034010010F58E0000024AD2F80034002B88
:104BF000FBD0704700E0014010B5FFF7D7FF40B190
:104C00004FF080430022C3F80C21C3F81021C3F8F1
:104C10003825FFF7CBFF002846D04FF080525B4B82
:104C2000D2F80414C3F82015D2F80814C3F82415D8
:104C3000D2F80C14C3F82815D2F81014C3F82C15A8
:104C4000D2F81414C3F83015D2F81814C3F8341578
:104C5000D2F81C14C3F84015D2F82014C3F8441538
:104C6000D2F82414C3F84815D2F82814C3F84C1508
:104C7000D2F82C14C3F85015D2F83014C3F85415D8
:104C8000D2F83414C3F86015D2F83814C3F8641598
:104C9000D2F83C14C3F86815D2F84014C3F86C1568
:104CA000D2F84424C3F87025FFF78AFF10B1384BBF
:104CB000384A1A60FFF784FF18B1374BFB22C3F85C
:104CC0001825FFF77DFF48B13449354B0A681B684A
:104CD00022F00F0203F00F0313430B60FFF770FF86
:104CE00018B1304B4FF400721A60FFF75FFF48B104
:104CF0004FF08043D3F80024D20744BF6FF0010285
:104D0000C3F80024284B1B68082B0ED1274B1B68C7
:104D1000052B02D8264AD35C3BB14FF01023D3F8C1
:104D200008224FF08043C3F858254FF01023D3F8E2
:104D30000022002A03DBD3F80432002B22DA1D49BB
:104D40000123C1F80435FFF74FFF4FF01020122464
:104D5000C0F80042FFF748FFC0F80442FFF744FFE5
:104D60000023C1F80435FFF73FFFBFF34F8F12490F
:104D7000124BCA6802F4E0621343CB60BFF34F8F5B
:104D800000BFFDE70E4B0F4A1A6010BD00C0004087
:104D90008C5600404881030000F00040E40E0040C3
:104DA00058020010409602403001001034010010FB
:104DB000EF8E000000E0014000ED00E00400FA0585
:104DC000D00000200090D00310B5144C144A1549AF
:104DD000032323616361144BA261E3614FF4806399
:104DE00023620023A3626362E36222660F4A626663
:104DF000E01D1022A2662367E366636702F05BFD95
:104E0000BFF35F8F0A49204602F055FDBFF35F8F65
:104E10002023A371BFF35F8F10BD00BF3C090020AA
:104E2000FB8E0000048F0000550A0020450A002078
:104E3000088F00000E4B70B553F82040013053F836
:104E40002060A64200D870BDD4E9003528469847B6
:104E500065B1EB6830B10028B8BF4042FF28A8BF59
:104E6000FF2018705A7842F001025A700834E8E7BF
:104E70001C81000070B5054610B90024204670BDA5
:104E80000378002BF9D00F4A0F4C1646944208D1F4
:104E90000D4CB442F1D0204602F0FEFE50B9183459
:104EA000F7E7204602F0F8FE10B12368AB42E5D0E8
:104EB0001834EBE72168284602F017FD0028EED1F0
:104EC000DCE700BF447E0000CC7D0000F8B504465E
:104ED0000E464FF02003EFF3118783F31288BFF3E0
:104EE0006F8F01F001FC31460546204602F04BFE73
:104EF000042C0CD10A490B4A0B488F2302F0ABFC5F
:104F00000A4802F0A8FC07488F2102F0D0FB87F383
:104F10001188BFF36F8F2846BDE8F840FDF766BEE5
:104F2000318F00000F8F0000248200004E8F0000A0
:104F3000114CA26892F90E20002A08B509DA0F492F
:104F40000F48104A272302F086FC0E48272102F062
:104F5000AEFB4FF02002EFF3118382F31288BFF310
:104F60006F8F01F0CFFFA061FDF768FA0028F0D144
:104F7000FDF71AFBEDE700BFE4090020A48F000055
:104F800024820000838F000030B5002387B0012207
:104F9000CDE904230F22CDE902320D4C0D4A0193D5
:104FA0000D49182304EBC01403FB00234FF4B07524
:104FB000009305FB0011094B4FF4A072204601F04D
:104FC00015FD637B23F00403637307B030BD00BF9E
:104FD000C0010020E409002040140020314F0000EF
:104FE00008B50A4B012202201A70FFF723FF02F0D6
:104FF00057F90320FFF71EFF01F05CFDFBF778FE79
:10500000034A137B23F00103137308BD550E0020E0
:10501000400200200248034A0021121A02F07CBC20
:10502000A00100201410002080B5DFF8D880A6B0C1
:1050300088F308882D4D2E4E6B69DFF8CC9043F431
:10504000007300246B61E02385F82230EC772C7626
:105050006C76AC7685F820406B6A43F4E0236B6293
:1050600085F82340FDF76CFDFDF798FA4FF0FF330C
:10507000AB62EB62FDF794FEFDF7CAFD40F201134F
:10508000ADF8243006ABB360CDE91F4402F003FE57
:105090002046FFF7CFFE0120164DFFF7CBFE01F0B3
:1050A0008DF9154B0593012314490094CDE9034371
:1050B0004FF480624B46CDE901442846F56101F08A
:1050C00095FC6A7B22F004026A730746284600F0CA
:1050D000C1FD2046FFF758FF094BF3604A463946A9
:1050E00028463475C6F80480FDF792FB00ED00E019
:1050F000E409002040020020CC8F00002010002096
:10510000C0010020C01D0020E14F00002DE9F0414A
:10511000164D174C174EA846AC420CD916491748E5
:105120003C23324602F097FB154802F094FB3C21E9
:10513000304602F0BCFA444502D30020BDE8F081BD
:10514000D4E9042141EA020313F003030BD1E06820
:10515000A361834201D12034DEE7A7690F600133E8
:10516000A1611144F5E76FF01500E7E75001002059
:1051700050010020D18F0000F68F00002482000033
:10518000139000002DE9F74304460E4690469946D9
:1051900000F108054FF02003EFF3118783F3128825
:1051A000BFF36F8F284601F015FD68B9244A2549E1
:1051B0002548812302F04FFB2448294602F04BFB8F
:1051C0001F48812102F073FA284601F021FDA369EE
:1051D000EBB133601B68A361E3690133E361002431
:1051E000284601F005FD68B9154A19491648AC234F
:1051F00002F031FB1748294602F02DFB1048AC2184
:1052000002F055FA87F31188BFF36F8F13E058EA65
:10521000090203D133606FF00B04E1E72246CDE9C8
:1052200000893946284600F0C7FE044618B90A4BE3
:105230009B685B693360204603B0BDE8F08300BF24
:105240008C880000DE88000024820000F3880000C3
:10525000B2880000C9880000E40900202DE9F0416F
:1052600004460E4600F108054FF02003EFF31187C6
:1052700083F31288BFF36F8F284601F0ABFC68B947
:10528000224A23492348812302F0E5FA224829468D
:1052900002F0E1FA1D48812102F009FA284601F0E6
:1052A000B7FCD4F81880B8F1000F0FD1204601F0F8
:1052B00035F858B132684261C0F8788000F0CAFC15
:1052C00039462846BDE8F04100F070BA3368A2695B
:1052D0001A603368A361E369013BE361284601F08A
:1052E00087FC68B9094A0D490A48AC2302F0B3FAB1
:1052F0000B48294602F0AFFA0448AC2102F0D7F976
:1053000087F31188BFF36F8FBDE8F0818C880000B0
:10531000DE88000024820000F3880000B2880000CC
:10532000C98800002DE9F341044616461F46EFF3F5
:10533000058363B17049714A7148652302F08BFAA5
:10534000704802F088FA6D48652102F0B0F94FF01C
:105350002003EFF3118883F31288BFF36F8F6A483D
:1053600001F038FC68B9694A69496548812302F04F
:1053700072FA6549674802F06EFA6448812102F0CA
:1053800096F9614801F044FCE368634AFBB1A06808
:10539000916888423DD056EA07033CD15A4801F053
:1053A00027FC68B9594A5D495548AC2302F053FAC5
:1053B00055495B4802F04FFA5448AC2102F077F9A6
:1053C00088F31188BFF36F8F6FF00F001EE09168B4
:1053D00091F90E104C4821610133E3609368A3609A
:1053E00001F006FC68B9494A4C494548AC2302F033
:1053F00032FA45494A4802F02EFA4448AC2102F0FC
:1054000056F988F31188BFF36F8F002002B0BDE812
:10541000F0812169DEE791F90E1090F90E30994282
:10542000A8BF19466FF07E029142B8BF11468B4269
:1054300044DD00F0F1FD0546CDE900673248224623
:10544000414600F0B9FD0028E0D04FF02003EFF313
:10545000118683F31288BFF36F8F2B4801F0BAFBDC
:1054600068B92A4A2A492648812302F0F4F92649D4
:10547000284802F0F0F92548812102F018F9224865
:1054800001F0C6FB236821699C420AD04BB193F915
:105490000E309942A8BF19466FF07E039942B8BFFB
:1054A0001946A06890F90E30994209D16DB116489D
:1054B000314600F07BF96FF00A00A7E70025BBE753
:1054C00000F0AAFD0028F2D1F0E70F4801F090FBB0
:1054D00068B90E4A11490A48AC2302F0BCF90A49DE
:1054E0000F4802F0B8F90948AC2102F0E0F886F361
:1054F0001188BFF36F8FDEE75490000032900000F8
:1055000024820000669000000C0A00208C880000B5
:10551000DE880000F3880000E4090020B288000063
:10552000C988000038B50446EFF3058363B15249DA
:10553000524A5348C72302F08EF9524802F08BF9C1
:105540004E48C72102F0B3F8A368002B00F08D800D
:105550004D4DAA68934240F08B80E3684BB94B49AC
:105560004748464ADF2302F076F94448DF2102F03B
:105570009EF8EFF3058363B13F49454A4048FD2358
:1055800002F069F9434802F066F94148FD2102F052
:105590008EF8AB68DB7B012B0CD13F493C4A384885
:1055A000FE2302F058F93B4802F055F93848FE2135
:1055B00002F07DF8AA68D37B013BD373E368012B2B
:1055C00005D9013BE36000F02DFE002038BD4FF00F
:1055D0002003EFF3118583F31288BFF36F8F2F48F9
:1055E00001F0F8FA68B92E4A2E492548812302F0C5
:1055F00032F92A492C4802F02EF92948812102F07B
:1056000056F8264801F004FBA068216990F90E3095
:10561000994201D000F000FD204600F07FFEA0601E
:1056200058B190F90E2022610022826700F012FB2F
:105630001A48294600F0BAF8C5E7E060174801F0BB
:10564000D7FA68B9164A19490D48AC2302F003F994
:105650001249174802F0FFF81148AC2102F027F870
:1056600085F31188BFF36F8FADE76FF01500ADE7DD
:105670004FF0FF30AAE700BF5490000032900000C6
:105680002482000066900000E40900208B90000056
:10569000A2900000CD900000D09000000C0A0020E5
:1056A0008C880000DE880000F3880000B2880000CB
:1056B000C988000010B5084C23685BB1FEF7E2FC16
:1056C00003462068054A0344BDE8104013610021E9
:1056D00001F060BC10BD00BF1C0A0020E4090020DE
:1056E000F8B504460D464FF02003EFF3118683F31F
:1056F0001288BFF36F8F234801F06CFA68B9224A11
:1057000022492348812302F0A6F81E49214802F0CD
:10571000A2F81D48812101F0CAFF1A4801F078FA69
:105720001D4B00224FF4004740F2E73000211A6180
:10573000E7FB040100234FF47A72FBF75FF9002CBA
:10574000164B1BDC1860164B1D60FFF7B3FF0D48AE
:1057500001F04EFA68B90C4A12490D48AC2302F028
:105760007AF80849104802F076F80748AC2101F0B1
:105770009EFF86F31188BFF36F8FF8BD0228B8BF74
:105780000220DFE7140A00208C880000DE88000079
:1057900024820000F3880000E40900201C0A002095
:1057A000180A0020B2880000C988000038B50446F5
:1057B0000D46E9B9EFF30583D3B9194BDA699B6854
:1057C0009A4215D001F014FA68B9164A16491748DA
:1057D000C32302F040F81648214602F03CF8114875
:1057E000C32101F064FFBDE838400020FCF7C0BFD2
:1057F000204601F0FDF968B90A4A0B490B48AC2371
:1058000002F029F80A48214602F025F80548AC21A3
:1058100001F04DFF85F31188BFF36F8F38BD00BFD6
:10582000E40900208C880000B28800002482000077
:10583000C988000038B54FF02003EFF3118583F3DA
:105840001288BFF36F8F294801F0C4F968B9284A5C
:1058500028492948812301F0FEFF2449274801F007
:10586000FAFF2348812101F022FF204801F0D0F9FE
:10587000EFF3058363B12249224A1F48FD2301F05B
:10588000EAFF214801F0E7FF1E48FD2101F00FFF6C
:105890001E4CA268D27B012A0CD11D49194A164818
:1058A000FE2301F0D8FF184801F0D5FF1548FE216E
:1058B00001F0FDFEA268D37B013BD3730B4801F0DE
:1058C00097F968B90A4A13490B48AC2301F0C3FFA2
:1058D0000649114801F0BFFF0548AC2101F0E7FE81
:1058E00085F31188BFF36F8F38BD00BF140A002005
:1058F0008C880000DE88000024820000F38800000D
:1059000054900000A2900000CD900000E409002017
:10591000D0900000B2880000C98800000C4B99426A
:1059200010B50C460BD10B490B480C4A40F2E7333B
:1059300001F091FF094840F2E73101F0B8FED4E9E7
:10594000003213605A600023C4E9003310BD00BF69
:10595000C00100202391000024820000019100007A
:10596000836810B504465BB90B490C480C4A40F2F9
:10597000832301F070FF0A4840F2832101F097FE73
:10598000A0682146FFF7CAFF637B23F0020363731D
:105990000023A36010BD00BF4491000024820000DA
:1059A0000191000038B502461448154D02F0BEF9C9
:1059B000044600B9EC68CAB9AB6863B91149124A28
:1059C0001248892301F047FF114801F044FF0E48B7
:1059D000892101F06CFEAB685A7BD20606D1A26920
:1059E00022B9DA897F2A01D9EB6138BDAB68A342BD
:1059F00001D0FFF75FFEEC61F7E700BF040A00206B
:105A0000E40900205B910000019100002482000065
:105A1000CD90000070B590F90D20437B002A04461C
:105A200006DA03F07F03437301461F48FFF776FF52
:105A3000637B63F07F0363731C4B9C4209D11C4959
:105A40001C481D4ABA2301F006FF1B48BA2101F089
:105A50002EFE1A4A1146556A51F8203F8B4208BF64
:105A60000023002B38BF0023CBB194F90E6093F9CB
:105A70000E0086420FD0801B00280CDD5968C4E957
:105A800000310C605C609068031B5842BDE87040B8
:105A90005841FFF787BFAB4201D01B68E4E7C4E978
:105AA00000152C605462EEE7040A0020C0010020BB
:105AB000239100002482000001910000E4090020ED
:105AC00070B504464FF02003EFF3118583F312887D
:105AD000BFF36F8F2A4801F07DF868B9294A2A4937
